:100000000D308A00BF2D0000FF00030E8301A10008
:100010000A08A0008A010408A2007708A300780853
:10002000A4007908A5007A08A60003170D08031399
:10003000A70003170F080313A80003170C080313E6
:10004000A90003170E080313AA00831383120B1EC3
:100050002B288B1856288C308400001C31280C1853
:1000600059288B1E35280B195C2822088400230888
:10007000F7002408F8002508F9002608FA002708E8
:1000800003178D000313280803178F000313290893
:1000900003178C0003132A0803178E00031320088C
:1000A0008A00210E8300FF0E7F0E09008A110A12BA
:1000B0003A2C8A150A1200288A110A12412C0A10B9
:1000C0008A100A11820728340C3401340634C33AEA
:1000D00072396537741DA012301A2E186600D624A6
:1000E000202AD2243A005328C522441DA012B01958
:1000F0002E18661052284D002010201020102010BD
:10010000201020100001D322D42FC82A4E22D22240
:10011000C4290001D322D42FC427DA22CE292010EB
:100120000001D322D42F5527492A53102010000153
:10013000D22A4E1020102010201020100001532A27
:100140004F282010201020102010000103171A083B
:1001500003191729A2001E0803191729A20703185B
:10016000B8287F30A202031C172903191729BC28BD
:100170008130A207031817292208F700F801F901B6
:10018000FA011B08A600A6171C08A5001D08A4005C
:100190001830A200A301241CE5282108FA07031C3B
:1001A000D728F90A031DD728F80A0319A31720082E
:1001B000F907031CDE28F80A0319A3171F089C007F
:1001C0009C171C08F8070318A317A30DF80CF90CCB
:1001D000FA0CA60CA50CA40C0310A20BCA28013023
:1001E000F70703181729F81BFC28A60DFA0DF90DBF
:1001F000F80DF70303191729A61F0D29FA0A031D85
:100200000D29F90A031D0D29F80A031D0D29F80C03
:10021000F90CFA0CF70A031917291B08A3001F0889
:10022000A306A31F1529F8171B29F8131B29F7018B
:10023000F801F901FA010313080003171A0803195A
:10024000E329A6001E080319E329A602031C2D2991
:100250007F30A6070318E32933298130A602031C47
:10026000E3290319E3292608F700F801F901FA0147
:10027000A5011B08A400A4171C08A3001D08A200C8
:100280001930A6002108A202031856290130A30242
:1002900003185629A40203185629A5020318562943
:1002A000A50AA40AA30A2108A20788292008A302F4
:1002B000031871290130A40203187129A50203183B
:1002C0007129A50AA40A2008A3072108A207031C74
:1002D0008829A30A031D8829A40A031D8829A50AC1
:1002E00088291F088038A402031887290130A50235
:1002F00003188729A50A1F088038A4072008A30728
:10030000031C6529A40A031D6529A50A65297A1419
:10031000A60B8B2996290310A20DA30DA40DA50DE4
:100320000310FA0DF90DF80DA70D4229271C9E297F
:100330000310F80CF90CFA0CA70CA129F703031908
:10034000E329A71BCA290310A20DA30DA40DA50D17
:100350002108A2020318B6290130A3020318B62906
:10036000A4020318B629A502031CD9292008A30258
:100370000318C1290130A4020318C129A502031CD6
:10038000D9291F088038A4020318CA290130A50200
:10039000031CD929FA0A031DD929F90A031DD929F1
:1003A000F80A031DD929F70A0319E329F80CF90CF7
:1003B000FA0C1B08A6001F08A606A61FE129F817BD
:1003C000E729F813E729F701F801F901FA01031306
:1003D00008008030831CEF2903179B0603130317C3
:1003E000A001A10117089F001B089F06160803190A
:1003F000DD2A9E00F7001A080319E62A9E02031957
:10040000822A031C402A1B08A400A4171C08A3006E
:100410001D08A200A1010310A40CA30CA20CA10CA6
:100420009E0B0A2A9F1F172A2014FA2A20101E103A
:1004300020161930840083170F2B20129F1B2A2AA5
:100440001E1C352AA40CA30CA20CA10CF70A03193C
:10045000F52A352AA41B382A0310A10DA20DA30DDD
:10046000A40DF7030319F52A2A2A2017A22A20131C
:1004700017089F009F1F3E2AA417EE2AA413EE2AF6
:100480001A089E00F70016089E021708A400A41779
:100490001808A3001908A200A1010310A40CA30CC2
:1004A000A20CA10C9E0B4C2A9F1F592AA014FA2AB9
:1004B000A0101E10A0161D30840083170F2BA01251
:1004C0009F1B6C2A1E1C772AA40CA30CA20CA10C47
:1004D000F70A0319F52A772AA41B7A2A0310A10D1B
:1004E000A20DA30DA40DF7030319F52A6C2AA0177A
:1004F000A22AA0131B089F009F1F802AA417EE2A80
:10050000A413EE2A1B08A400A4171C08A3001D08AE
:10051000A2009F1F8F2AA4132015FA2A2011A101DF
:100520001E101930840083170F2B9F1BB82A170841
:100530009F001E1CA22AA40CA30CA20CA10CF70A5B
:100540000319F52AA11FB32AA20A031DB32AA30A7D
:10055000031DB32AA40A031DB32AA40CA30CA20CE6
:10056000F70A0319F52A201B372AA01B792AD72A54
:100570008030A406A41FC02AFA2A1B089F00CD2A97
:1005800017089F00A408031DCD2AA308031DCD2A28
:10059000A208031DCD2AF701EE2AA41BD72A0310B7
:1005A000A10DA20DA30DA40DF70BCD2AF52A9F1FB7
:1005B000DB2AA417EE2AA413EE2A1A08F7001B0858
:1005C000A4001C08A3001D08A200EE2A1608F700CC
:1005D0001708A4001808A3001908A2002408F800AE
:1005E0002308F9002208FA002D2BF701F801F90180
:1005F000FA012D2BA101A209A309A409A109A10AAD
:10060000031D082BA20A031D082BA30A0319A40A21
:100610002018162AA018582A20198E2ABD2A000848
:10062000A207031C192BA30A031D192BA40A0319E3
:100630001E1484030008A307031C212BA40A03191A
:100640001E1484030008801F803AA40703181E1498
:10065000201A1D2AA01A5F2A952A03130800831660
:100660006B08EE0083120317110883160313EE06BE
:10067000EE1F3F2B03110310EB1B0314822B6B089F
:10068000EE0083120317100883160313EF006A08A5
:10069000EF020319512BEE1F822B0308013A83004E
:1006A000822B83120317110883160313EF006B08C4
:1006B000EF020319612BEE1F822B0308013A83001E
:1006C000822B83120317120883160313EF006C08A2
:1006D000EF020319712BEE1F822B0308013A8300EE
:1006E000822B83120317130883160313EF006D0880
:1006F000EF020319812BEE1F822B0308013A8300BE
:10070000822B03108312080083166808013A8312B3
:1007100003198E2B013A0319952B9B2B8316A512D7
:1007200025088700831287169B2B8316A5122508A0
:1007300087008312871208000030F8000638920004
:10074000FF308316920025112508870083120711B8
:100750000C309700831669088312950008008316F1
:10076000ED01EC01EB01EA0163088312031793002A
:100770008316031362088312031792008316031370
:100780006108831203179100831603136008831214
:100790000317900003132F23031CFF2B8316E8017C
:1007A0008312842383166308EB006208EA00610861
:1007B000E9006008E8008E30F7006808F702690871
:1007C000F9006A08F800F917F7080319F22B03106B
:1007D000F908031DEE2BF8080319F22BF90CF80C9D
:1007E000F70BE72BE91FF92BF809F909F80A0319A8
:1007F000F90A7808E800E90083129C23392C831653
:100800006008E4006108803AE5006208E6006308D9
:10081000E7000130E8008312842383166708EB00A9
:100820006608EA006508E9006408E8008E30F70011
:100830006808F7026908F9006A08F800F917F7086C
:1008400003192D2C0310F908031D292CF80803198E
:100850002D2CF90CF80CF70B222CE91F342CF8097D
:10086000F909F80A0319F90A7808E800E90083127F
:100870009C230800F10A0319F20A8B108A110A124C
:100880003528F50A0319F60A7608033C0318572C95
:10089000FF3A031D4F2C7508E23C0318572CF60154
:1008A000F5017208F4007108F300F201F1010B1177
:1008B0008A110A123528091083160910081688169D
:1008C0000817881783128914831689100000831271
:1008D0000915831609110000C201081600308312A1
:1008E000081A01308316C204881600308312881A51
:1008F0000130F7000310F70D77088316C2040817BC
:1009000000308312081B0130F700F70DF70DFC30A3
:10091000F70577088316C204881700308312881BF6
:100920000130F700F70DF70DF70DF830F7057708F0
:100930008316C2044208F8007808C1008312091126
:10094000831609110000831209158316091100008E
:10095000C201081600308312081A01308316C2043F
:10096000881600308312881A0130F7000310F70D43
:1009700077088316C204081700308312081B013061
:10098000F700F70DF70DFC30F70577088316C20462
:10099000881700308312881B0130F700F70DF70D20
:1009A000F70DF830F70577088316C2044208F800FF
:1009B0007808C000831209118316091108128812E1
:1009C00008138813410EF700F030F705770840044C
:1009D000F8007808C000C01B5E2CBE08031DF42C74
:1009E00083120910F62C831683120914831609103A
:1009F00000008312891083168910000083120911E8
:100A0000831609113F0EC0000F30C0054008C10019
:100A100041180E2D83120812102D8316831208160A
:100A200083160812C118182D831288121A2D8316E6
:100A300083128816831688124119222D83120813F7
:100A4000242D83168312081783160813C1192C2D21
:100A5000831288132E2D831683128817831688130A
:100A6000000083120915831609110230F700F70BF5
:100A7000372D3A2D000083120911831609113F0802
:100A80000F39C0004008C10041184A2D83120812D6
:100A90004C2D83168312081683160812C118542D84
:100AA00083128812562D8316831288168316881295
:100AB00041195E2D83120813602D831683120817C7
:100AC00083160813C119682D831288136A2D8316A3
:100AD0008312881783168813000083120915831662
:100AE00009110230F700F70B732D762D00008312E9
:100AF000091183160911831208008316081288123F
:100B0000081388130911091089108312091083161C
:100B10000910831289108316891083120911831614
:100B200009110F30BA00BA3084008313000803198A
:100B3000A62D0630F800F701F70B9C2DF80B9B2D26
:100B40007B30F700F70BA22D800B992D0130A6000A
:100B50002608033C031CFC2D0330C1004118B42DB2
:100B600083120812B62D83168312081683160812F4
:100B7000C118BE2D83128812C02D831683128816C9
:100B8000831688124119C82D83120813CA2D8316A3
:100B90008312081783160813C119D22D83128813E4
:100BA000D42D8316831288178316881300008312AE
:100BB0000915831609110230F700F70BDD2DE02D22
:100BC000000083120911831609110530BA00BA30EA
:100BD0008400831300080319FA2D0630F800F7018A
:100BE000F70BF02DF80BEF2D7B30F700F70BF62D00
:100BF000800BED2DA60AA82D0230C1004118042E4D
:100C000083120812062E8316831208168316081202
:100C1000C1180E2E83128812102E83168312881686
:100C2000831688124119182E831208131A2E831660
:100C30008312081783160813C119222E83128813F2
:100C4000242E8316831288178316881300008312BC
:100C50000915831609110230F700F70B2D2E302EDF
:100C600000008312091183160911A6012608033C0E
:100C7000031C472E260883125F208316A700BE019F
:100C80002708BF0083125B248316A60A362E831220
:100C90008A150A12EF2D83160108C0390338810026
:100CA00083120B168B16C0308B04063081008A1518
:100CB0000A12F22D853090008E013C308F00B0304A
:100CC0008E0083160C14C03083128B048A150A120E
:100CD000F52D83163B0B6E2EBC01822E3B08023C89
:100CE000031D752E4030BC00822E3B08033C031DC3
:100CF0007C2E1430BC00822E3B08043C031D822E47
:100D00005430BC0001303A02BC073C088038BD00BA
:100D1000BE013D08BF0083125B240800831639081A
:100D20000C3A831203199B2E063A0319B82E023A85
:100D30000319C12ECA2E8316BE010130BF008312D3
:100D40005B2402308316BA00BA3084008313000893
:100D50000319B72E0630F800F701F70BAD2EF80B8C
:100D6000AC2E7B30F700F70BB32E800BAA2ED22EC1
:100D700001308316BA000230BB0083126926831645
:100D8000D22E8316BE011030BF0083125B2483165F
:100D9000D22E831201308316BE003908BF008312A1
:100DA0005B248316831208000B088316AA008312A3
:100DB0008B13831603178C170C1400000000031309
:100DC000AA1FE52E83128B178316831203170C08B4
:100DD0007F390319462F83160313AA0083120317C2
:100DE0000D0883160313AB00831203170F08831635
:100DF0000313AC002A08B90083128E2683162B0831
:100E0000831203178D00831603132C088312031714
:100E10008F0003130B088316AD0083128B13831608
:100E200003178C170C14000000000313AD1F1B2FB9
:100E300083128B178316831203170C0D0E0D7F3947
:100E40000319462F83160313AA00831203170D08F4
:100E500083160313AB00831203170F0883160313C3
:100E6000AC002A08B90083128E2683162B08831241
:100E700003178D00831603132C08831203178F00AA
:100E80008D0A03198F0A0313D42E031703130800C6
:100E900001308316BA00BB00831269266F30031736
:100EA0008D0000308F000313D4260A308316BA0059
:100EB0000130BB0083126926433084003D0883164D
:100EC000AF0083123C088316AE0083123B088316E2
:100ED000AD0083123A088316AC00B0018A15831264
:100EE00019248A118A150A120F2E01308316BA00AE
:100EF0000230BB008312692683162408FA3E0318C9
:100F0000BB2F063E8312BF2F7C3003178D000030AD
:100F10008F000313D4268316BB2F833003178D0055
:100F200000308F000313D4268316BB2F8A3003179B
:100F30008D0000308F000313D4268316BB2F913011
:100F400003178D0000308F000313D4268316BB2FA8
:100F5000983003178D0000308F000313D4268316BA
:100F6000BB2F9F3003178D0000308F000313D42652
:100F70008316BB2F831683128A150A12162E0A14A3
:100F80008A140A158207842F8D2F962F9F2FA82F42
:100F9000B12FA6308400831300080319DC2F06301C
:100FA000F800F701F70BD22FF80BD12F7B30F700A9
:0E0FB000F70BD82F800BCF2F8A150A12352E83
:1010000083162308E3002208E2002108E1002008FB
:10101000E0007408E5007308E4006308E900620872
:10102000E8006108E7006008E6006908EF0068086A
:10103000EE006708ED006608EC00650883120317F0
:10104000910083160313640883120317900083161C
:1010500003138614831286188F280317110897002C
:10106000100896008E30F7001708F8001608F900EF
:10107000FA01F808031D46287908F800F90108303C
:10108000F702F808031D4628F7014E280310F81B45
:101090004D28F90DF80DF7034628F8137708960048
:1010A0007808803A9700790898007A0899009D009E
:1010B00018089C0017089B0016089A000A30A10027
:1010C000D730A00023309F0078309E008A11031390
:1010D000A6208A157A0803179900790898007808DD
:1010E00097007708960019089D0018089C001708BB
:1010F0009B0016089A00A101A0019F0181309E006B
:101100008A1103131D218A157A080317950079089F
:1011100094007808930077089200EF2803130317D0
:1011200011089700100896008E30F7001708F80095
:101130001608F900FA01F808031DA8287908F80034
:10114000F9010830F702F808031DA828F701B028B4
:101150000310F81BAF28F90DF80DF703A828F813B2
:101160007A0899007908980078089700770896001F
:1011700019089D0018089C0017089B0016089A0083
:101180000A30A100D730A00023309F0078309E00A5
:101190008A110313A6208A157A0803179900790883
:1011A0009800780897007708960019089D0018089D
:1011B0009C0017089B0016089A00A101A0019F013E
:1011C00081309E008A1103131D218A157A080317A6
:1011D00095007908940078089300770892008310AE
:1011E000831603136F0883120317990083160313E2
:1011F0006E08831203179800831603136D08831279
:1012000003179700831603136C08831203179600C5
:1012100015089D0014089C0013089B0012089A00F2
:101220008A110313E9218A157A088316EF007908D9
:10123000EE007808ED007708EC006C08F7006D0808
:10124000F8006E08F9006F08FA007A08E3007908E0
:10125000E2007808E1007708E000ED01EC017A3067
:10126000EB008730EA0063088312031793008316AC
:101270000313620883120317920083160313610895
:101280008312031791008316031360088312031758
:1012900090008A1103132F238A15031C57298316E4
:1012A000E301E2017A30E1008730E0008312831627
:1012B0006308ED006208EC006108EB006008EA00DA
:1012C0008312031793019201FA3091008730900046
:1012D0008A1103132F238A15031C76298316E30131
:1012E000E201FA30E1008730E000831283166008E3
:1012F000F7006108F8006208F9006308FA007A084C
:10130000A3007908A2007808A1007708A00025139F
:101310002508870040308312870683162408043C82
:10132000031D032C7E08E3007D08E2007C08E10039
:101330007B08E0002308E7002208E6002108E5001A
:101340002008E400831463088312031799008316AE
:1013500003136208831203179800831603136108AE
:101360008312031797008316031360088312031771
:101370009600831603136708831203179D008316D4
:1013800003136608831203179C0083160313650872
:10139000831203179B008316031364088312031739
:1013A0009A008A110313E9218A157A08C400790882
:1013B000C3007808C2007708C100600803179D00C9
:1013C00003135F0803179C0003135E0803179B00B9
:1013D00003135D0803179A00031344080317A100C1
:1013E000031343080317A0000313420803179F00C9
:1013F0000313410803179E008A110313A6208A15C0
:101400007A08CC007908CB007808CA007708C900B0
:101410008310440803179900031343080317980027
:10142000031342080317970003134108031796009C
:101430000313480803179D000313470803179C0074
:101440000313460803179B000313450803179A006C
:101450008A110313E9218A15640803179D000313F9
:10146000630803179C000313620803179B00031310
:10147000610803179A007A08A1007908A00078088B
:101480009F0077089E008A110313A6208A157A0808
:101490008316EB007908EA007808E9007708E8008D
:1014A0006B08831203179D00831603136A088312C7
:1014B00003179C00831603136908831203179B000C
:1014C000831603136808831203179A00A101A00171
:1014D0009F0180309E008A1103131D218A157A080E
:1014E0008316EB007908EA007808E9007708E8003D
:1014F0006B08831203179D00831603136A08831277
:1015000003179C00831603136908831203179B00BB
:10151000831603136808831203179A000A30A10088
:10152000D730A00023309F0078309E008A1103132B
:10153000A6208A15831050080317990003134F083B
:101540000317980003134E080317970003134D0861
:10155000031796007A089D0079089C0078089B0084
:1015600077089A008A110313E9218A157A08D000B6
:101570007908CF007808CE007708CD00831444089E
:101580000317990003134308031798000313420835
:101590000317970003134108031796000313480825
:1015A00003179D000313470803179C000313460805
:1015B00003179B000313450803179A008A110313AE
:1015C000E9218A15680803179D00031367080317AC
:1015D0009C000313660803179B0003136508031799
:1015E0009A007A08A1007908A00078089F0077087F
:1015F0009E008A110313A6208A157A088316EB0031
:101600007908EA007808E9007708E8006B08831297
:1016100003179D00831603136A08831203179C00A7
:10162000831603136908831203179B0083160313A1
:101630006808831203179A000A30A100D730A0006F
:1016400023309F0078309E008A1103131D218A15D4
:101650007A08D4007908D3007808D2007708D1003E
:1016600083104C080317990003134B0803179800C5
:1016700003134A080317970003134908031796003A
:101680000313500803179D0003134F0803179C0012
:1016900003134E0803179B0003134D0803179A000A
:1016A0008A110313E9218A157A088316EB00790859
:1016B000EA007808E9007708E80083106B088312D5
:1016C00003179900831603136A08831203179800FF
:1016D00083160313690883120317970083160313F5
:1016E00068088312031796000313540803179D001C
:1016F0000313530803179C000313520803179B009E
:101700000313510803179A008A110313E9218A155C
:101710007A08D8007908D7007808D6007708D5006D
:101720008316ED01EC017A30EB008630EA0083127B
:101730005808031793000313570803179200031365
:1017400056080317910003135508031790008A11D8
:1017500003132F238A15031CB32BD801D7017A302A
:10176000D6008630D50058088316ED00831257083E
:101770008316EC00831256088316EB00831255087B
:101780008316EA008312031793019201FA30910045
:10179000863090008A1103132F238A15031CD62B41
:1017A000D801D701FA30D6008630D5004408C800E9
:1017B0004308C7004208C6004108C5005508F700A5
:1017C0005608F8005708F9005808FA007A08D800B7
:1017D0007908D7007808D6007708D500580883160E
:1017E000E300831257088316E2008312560883161B
:1017F000E100831255088316E0008A118312AF239B
:101800008A15152C83168312D801D701D601D5016C
:10181000C801C701C601C5018316E301E201E10168
:10182000E0018A118312AF238A150C108A110A1263
:10183000352804088316B1003008B3000319532C6F
:101840008312AB018B1BAB178B1383162F088312EC
:1018500003179D00831603132E08831203179C00A1
:10186000831603132D08831203179B00831603139B
:101870002C08831203179A00A101A00120309F00B9
:1018800082309E008A110313A6208A15AB1B8B178A
:101890007A088316AF007908AE007808AD007708A3
:1018A000AC00B30B202C2F08BC002E08BB002D0869
:1018B000BA002C08B9003908B63CB900FA013A0858
:1018C000BD00BA170310BA0CBB0CBC0CFA0CF90C17
:1018D000F80CF70CB90B622CBD1F792CF709F8092D
:1018E000F909FA09F70A0319F80A0319F90A031999
:1018F000FA0A7A08AF007908AE007808AD007708D8
:10190000AC00AF1F902CB103B116AC09AD09AE0904
:10191000AF09AC0A0319AD0A0319AE0A0319AF0ADD
:101920003B30B8009A30B700CA30B600B5010A3073
:10193000B30030080319B10A8314AC308400831358
:101940002F08BC002E08BB002D08BA002C08B900D7
:101950003808C0003708BF003608BE003508BD0093
:101960008318B52CC13084008313F701F801F90105
:10197000FA01C101C201C301C40140083F043E0491
:101980003D040319F32C2030C5000310B90DBA0D26
:10199000BB0DBC0DC10DC20DC30DC40D40084402EA
:1019A000031DDC2C3F084302031DDC2C3E084202D1
:1019B000031DDC2C3D084102031CED2C3D08C10237
:1019C0003E08031C3E0FC2023F08031C3F0FC30228
:1019D0004008031C400FC4020314F70DF80DF90D65
:1019E000FA0DC50BC52C41088000840A420880000E
:1019F000840A43088000840A440880007808F708B5
:101A0000031D152D300A33020319152D3108031952
:101A1000172D0F39330203190F2D0318572DB11B42
:101A2000572D311B172D20304F2D2030B105B11E01
:101A3000292DB1123008031DB1037708B1002D30F4
:101A4000B9008A1183128E268A1583163108F70091
:101A5000B10130083302031D3B2D7708B1002E3051
:101A6000B9008A1183128E268A1583163108F70071
:101A70002030B10500303030B11E4F2DB11230088A
:101A8000031DB1037708B1002D30B9008A1183120C
:101A90008E268A1583163108F700B1013030F7071A
:101AA0007708B9008A1183128E268A15831683104F
:101AB0003808BC003708BB003608BA003508B90042
:101AC000C001BF01BE010A30BD0083186A2DC130BC
:101AD00084008313F701F801F901FA01C101C20181
:101AE000C301C40140083F043E043D040319A82D6E
:101AF0002030C5000310B90DBA0DBB0DBC0DC10DD2
:101B0000C20DC30DC40D40084402031D912D3F08B2
:101B10004302031D912D3E084202031D912D3D08F5
:101B20004102031CA22D3D08C1023E08031C3E0FCA
:101B3000C2023F08031C3F0FC3024008031C400FB2
:101B4000C4020314F70DF80DF90DFA0DC50B7A2D2B
:101B500041088000840A42088000840A430880000B
:101B6000840A440880007A08B8007908B700780829
:101B7000B6007708B500B30B9C2C8312080003084D
:101B80001F398300AD01AC01B101B001AF01AE015D
:101B9000B501B401B301B201B901B801B701B60191
:101BA000E001DF012030DE008230DD00E401E301EE
:101BB000E201E101E801E7014030E6008030E500A4
:101BC00005308316A400FF30A5001F149F141F15B5
:101BD0009F1107309C0083138A1183127D2D8A1573
:101BE0008A114B2E8A158A115A2E8A150A168A11C5
:101BF00000280A128A157A08FE007908FD00780884
:101C0000FC007708FB007E088316A9007D08A80069
:101C10007C08A7007B08A6008A118312482F8A152A
:101C200083162408A6008A118312752F8A1583163D
:101C30002308A9002208A8002108A7002008A60060
:101C40000A16831200280A1274088316A700730864
:101C5000A6000A168A118312B12C0A128A15323094
:101C60008316A6008A118312C92F8A15F62D6300E8
:10200000831606178312061F0C28BE08031D0C2812
:102010000130AC070318AD0A2C08F7002D08FA00B0
:102020007A08031D172801307702031934287A082B
:10203000031D1E28023077020319EB287A08031DBE
:102040002528033077020319A0297A08031D2C28BC
:10205000043077020319552A7A08031D3328053006
:10206000770203195A2A602A01308316A400061643
:102070008312061E9028BF08031D90288310AB0111
:102080008B1BAB178B133108031799000313300810
:102090000317980003132F080317970003132E0844
:1020A000031796009D019C019B017F309A000A1244
:1020B0000313E9210A16AB1B8B177A08B1007908C4
:1020C000B0007808AF007708AE00AB018B1BAB17F0
:1020D0008B138316ED01EC014030EB008130EA00F8
:1020E000831231080317930003133008031792007B
:1020F00003132F080317910003132E0803179000F2
:102100000A1203132F230A16AB1B8B1703188A28F6
:10211000031D9028B101B0012030AF008130AE0026
:10212000831686168312861EEA28C008031DEA2835
:102130008314AB018B1BAB178B133108031799006A
:10214000031330080317980003132F080317970091
:1021500003132E08031796009D019C019B017F30FD
:102160009A000A120313E9210A16AB1B8B177A088F
:10217000B1007908B0007808AF007708AE00AB0175
:102180008B1BAB178B1331088316ED0083123008BD
:102190008316EC0083122F088316EB0083122E089F
:1021A0008316EA008312031793019201C030910055
:1021B000813090000A1203132F230A16AB1B8B17D2
:1021C0000318E428031DEA28B101B001A030AF00D4
:1021D0008130AE00602A02308316A40006168312F6
:1021E000061E4529BF08031945298310AB018B1B27
:1021F000AB178B1335080317990003133408031723
:1022000098000313330803179700031332080317CA
:1022100096009D019C019B017F309A000A120313D6
:10222000E9210A16AB1B8B177A08B5007908B400B0
:102230007808B3007708B200AB018B1BAB178B1388
:102240008316ED01EC012030EB008230EA008312AE
:102250003508031793000313340803179200031380
:1022600033080317910003133208031790000A1272
:1022700003132F230A16AB1B8B1703184129031DC9
:102280004529B501B401B301B20183168616831244
:10229000861E9F29C008031D9F298314AB018B1B39
:1022A000AB178B1335080317990003133408031772
:1022B000980003133308031797000313320803171A
:1022C00096009D019C019B017F309A000A12031326
:1022D000E9210A16AB1B8B177A08B5007908B40000
:1022E0007808B3007708B200AB018B1BAB178B13D8
:1022F00035088316ED00831234088316EC00831230
:1023000033088316EB00831232088316EA00831227
:10231000031793019201803091007F3090000A12E0
:1023200003132F230A16AB1B8B1703189929031DC0
:102330009F29B501B4011030B3008230B200602A89
:1023400003308316A40006168312061EFA29BF085E
:10235000031DFA298310AB018B1BAB178B133908B4
:10236000031799000313380803179800031337085D
:102370000317970003133608031796009D019C016D
:102380009B017F309A000A120313E9210A16AB1B46
:102390008B177A08B9007908B8007808B700770871
:1023A000B600AB018B1BAB178B138316ED01EC0151
:1023B0002030EB008230EA008312390803179300C3
:1023C000031338080317920003133708031791000B
:1023D00003133608031790000A1203132F230A165B
:1023E000AB1B8B170318F629031DFA29B901B80195
:1023F000B701B601831686168312861E542AC008BA
:10240000031D542A8314AB018B1BAB178B133908A4
:1024100003179900031338080317980003133708AC
:102420000317970003133608031796009D019C01BC
:102430009B017F309A000A120313E9210A16AB1B95
:102440008B177A08B9007908B8007808B7007708C0
:10245000B600AB018B1BAB178B1339088316ED004D
:10246000831238088316EC00831237088316EB00BA
:10247000831236088316EA00831203179301920130
:10248000803091007F3090000A1203132F230A1628
:10249000AB1B8B1703184E2A031D542AB901B80130
:1024A0001030B7008230B600602A04308316A400D2
:1024B0008312602A05308316A4008312AD01AC019B
:1024C000AB018B1BAB178B138316ED01EC01EB01FA
:1024D000EA0183123108031793000313300803172E
:1024E000920003132F080317910003132E080317FC
:1024F00090000A1203132F230A16AB1B8B17031825
:10250000832A031D392BAB018B1BAB178B133108AF
:1025100003179D000313300803179C0003132F08B3
:1025200003179B0003132E0803179A00A101A001B3
:1025300048309F0085309E000A120313A6200A1619
:10254000AB1B8B177A088316A9007908A8007808B6
:10255000A7007708A6008312AB018B1BAB178B1368
:10256000350803179D000313340803179C00031359
:10257000330803179B000313320803179A00A101C5
:10258000A00120309F0082309E000A120313A62073
:102590000A16AB1B8B178310AB018B1BAB178B136E
:1025A000831629088312031799008316031328083A
:1025B0008312031798008316031327088312031747
:1025C00097008316031326088312031796007A08D0
:1025D0009D0079089C0078089B0077089A000A12F1
:1025E0000313E9210A16AB1B8B177A088316A9007F
:1025F0007908A8007808A7007708A600831083123E
:10260000AB018B1BAB178B1383162908831203179F
:102610009900831603132808831203179800831662
:102620000313270883120317970083160313260842
:102630008312031796000313390803179D00031331
:10264000380803179C000313370803179B00031374
:10265000360803179A000A120313E9210A16AB1B66
:102660008B177A08BD007908BC007808BB00770892
:10267000BA00AB018B1BAB178B1331088316ED002F
:10268000831230088316EC0083122F088316EB00A8
:1026900083122E088316EA00831203179301920116
:1026A000910190010A1203132F230A16AB1B8B17FB
:1026B000031C422C2E088316A60083122F08803A92
:1026C0008316A700831230088316A80083123108EE
:1026D0008316A9008312AB018B1BAB178B138316D8
:1026E0002908831203179D008316031328088312F9
:1026F00003179C00831603132708831203179B00FC
:10270000831603132608831203179A00A101A00160
:1027100048309F0085309E000A120313A6200A1637
:10272000AB1B8B177A088316A9007908A8007808D4
:10273000A7007708A6008312AB018B1BAB178B1386
:10274000350803179D000313340803179C00031377
:10275000330803179B000313320803179A00A101E3
:10276000A00120309F0082309E000A120313A62091
:102770000A16AB1B8B178310AB018B1BAB178B138C
:102780008316290883120317990083160313280858
:102790008312031798008316031327088312031765
:1027A00097008316031326088312031796007A08EE
:1027B0009D0079089C0078089B0077089A000A120F
:1027C0000313E9210A16AB1B8B177A088316A9009D
:1027D0007908A8007808A7007708A600831083125C
:1027E000AB018B1BAB178B138316290883120317BE
:1027F0009900831603132808831203179800831681
:102800000313270883120317970083160313260860
:102810008312031796000313390803179D0003134F
:10282000380803179C000313370803179B00031392
:10283000360803179A000A120313E9210A16AB1B84
:102840008B17AB018B1BAB178B1303179D019C01DF
:1028500080309B007F309A007A08A1007908A000A0
:1028600078089F0077089E000A120313A6200A1614
:10287000AB1B8B177A08BD007908BC007808BB0039
:102880007708BA00AB018B1BAB178B138316ED01D6
:10289000EC017A30EB008730EA0083123D08031721
:1028A000930003133C080317920003133B0803171C
:1028B000910003133A08031790000A1203132F2301
:1028C0000A16AB1B8B17031C6B2CBD01BC017A30A5
:1028D000BB008730BA00AB018B1BAB178B133D08D5
:1028E0008316ED0083123C088316EC0083123B082C
:1028F0008316EB0083123A088316EA00831203174B
:1029000093019201FA309100873090000A1203136C
:102910002F230A16AB1B8B17031C942CBD01BC0183
:10292000FA30BB008730BA00831606178312BE0147
:10293000061BBE0A831606168312BF01061ABF0ABB
:10294000831686168312C001861AC00A3A08F70059
:102950003B08F8003C08F9003D08FA008A150A1205
:10296000F92D83168614831286184C2D831627089A
:102970008312031797008316031326088312031785
:1029800096008E30F7001708F8001608F900FA01D3
:10299000F808031DD52C7908F800F9010830F70272
:1029A000F808031DD52CF701DD2C0310F81BDC2CD7
:1029B000F90DF80DF703D52CF813770883160313D8
:1029C000AC007808803AAD007908AE007A08AF0014
:1029D0008312AB018B1BAB178B1383162F0883124B
:1029E00003179D00831603132E08831203179C0000
:1029F000831603132D08831203179B0083160313FA
:102A00002C08831203179A00A101A00170309F00C7
:102A100084309E000A120313A6200A16AB1B8B17E4
:102A20007A088316AF007908AE007808AD00770801
:102A3000AC008312AB018B1BAB178B1383162F08D3
:102A4000831203179D00831603132E0883120317A6
:102A50009C00831603132D08831203179B00831613
:102A600003132C08831203179A00A101A001483018
:102A70009F0086309E000A1203131D210A16AB1B0D
:102A80008B177A088316AB007908AA007808A9008A
:102A90007708A800DF2D83128316270883120317F7
:102AA00097008316031326088312031796008E30AF
:102AB000F7001708F8001608F900FA01F808031DD6
:102AC0006B2D7908F800F9010830F702F808031DAA
:102AD0006B2DF701732D0310F81B722DF90DF80DF6
:102AE000F7036B2DF8137A0883160313AF007908E8
:102AF000AE007808AD007708AC008312AB018B1BE9
:102B0000AB178B1383162F08831203179D008316B0
:102B100003132E08831203179C00831603132D083A
:102B2000831203179B00831603132C0883120317C9
:102B30009A00A101A00170309F0084309E000A120B
:102B40000313A6200A16AB1B8B177A088316AF0057
:102B50007908AE007808AD007708AC008312AB01AD
:102B60008B1BAB178B1383162F08831203179D0043
:102B7000831603132E08831203179C008316031376
:102B80002D08831203179B00831603132C0883124E
:102B900003179A00A101A00148309F0086309E00D3
:102BA0000A1203131D210A16AB1B8B177A08831612
:102BB000AB007908AA007808A9007708A8000130BE
:102BC000BA000430BB000A12831269260A16733059
:102BD00003178D0000308F00031007308316031396
:102BE000AC0083120B088316AD0083128B1383167F
:102BF00003178C170C14000000000313AD1F032EE5
:102C000083128B17831603183E2E831203170C08AA
:102C10007F3983160313AD00831203170D08831643
:102C20000313AE00831203170F0883160313AF00BC
:102C30002D08B9000A1283128E260A1683162E0852
:102C4000831203178D00831603132F0883120317B3
:102C50008F0003130B088316B00083128B138316A7
:102C600003178C170C14000000000313B01F3B2E39
:102C700083128B178316AC0B3E2E6B2E8312031719
:102C80000C0D0E0D7F3983160313AD00831203174D
:102C90000D0883160313AE00831203170F08831663
:102CA0000313AF002D08B9000A1283128E260A16EC
:102CB00083162E08831203178D00831603132F0823
:102CC000831203178F008D0A03198F0A03108316CE
:102CD0000313AC0BF12D423084002B08AF002A08FF
:102CE000AE002908AD002808AC00B0010A128A1510
:102CF000831219240A168A11793003178D000030C7
:102D00008F000314043083160313AC0083120B08E6
:102D10008316AD0083128B13831603178C170C14C4
:102D2000000000000313AD1F982E83128B1783162B
:102D30000318D32E831203170C087F39831603134D
:102D4000AD00831203170D0883160313AE00831220
:102D500003170F0883160313AF002D08B9000A12DA
:102D600083128E260A1683162E08831203178D00EF
:102D7000831603132F08831203178F0003130B0806
:102D80008316B00083128B13831603178C170C1451
:102D9000000000000313B01FD02E83128B17831680
:102DA000AC0BD32E002F831203170C0D0E0D7F39A1
:102DB00083160313AD00831203170D088316031344
:102DC000AE00831203170F0883160313AF002D08FC
:102DD000B9000A1283128E260A1683162E08831251
:102DE00003178D00831603132F08831203178F0018
:102DF0008D0A03198F0A031083160313AC0B862E5A
:082E000083128A150A122D2E1F
:1030000083162908AD002808AC002708AB00260865
:10301000AA00E030AE000730AF00E030B00003306F
:10302000B100E030B2000130B300E030B400B501CF
:103030006030B600B7012030B800B9013030BA00B6
:10304000BB013830BC00BD013C30BE00BF013E308A
:10305000C000C1013F30C200C3018312AB018B1B12
:10306000AB178B1383162D08831203179D0083164D
:1030700003132C08831203179C00831603132B08D9
:10308000831203179B00831603132A088312031766
:103090009A00A101A00148309F0085309E000A12CD
:1030A0008A1103131D210A168A15AB1B8B177A0888
:1030B0008316CB007908CA007808C9007708C800D1
:1030C00083108312AB018B1BAB178B1383164B083A
:1030D000831203179900831603134A0883120317F8
:1030E0009800831603134908831203179700831669
:1030F000031348088312031796009D019C0120309A
:103100009B0081309A000A128A110313E9210A16E2
:103110008A15AB1B8B177A088316CB007908CA0077
:103120007808C9007708C8004B08CF004A08CE00CD
:103130004908CD004808CC008312AB018B1BAB17AC
:103140008B1383164F08831203179D0083160313F6
:103150004E08831203179C00831603134D08831235
:1031600003179B00831603134C08831203179A005E
:10317000A101A00120309F0082309E000A128A1116
:103180000313A6200A168A15AB1B8B177A08831621
:10319000CF007908CE007808CD007708CC008312E4
:1031A000AB018B1BAB178B138316ED01EC01EB010D
:1031B000EA014F08831203179300831603134E0886
:1031C000831203179200831603134D08831203170B
:1031D0009100831603134C088312031790000A1200
:1031E0008A1103132F230A168A15AB1B8B1703189A
:1031F000FB28031D742983164F08EB004E08EA00D4
:103200004D08E9004C08E8008E30F7006808F70226
:103210006908F9006A08F800F917F70803191B296B
:103220000310F908031D1729F80803191B29F90CC5
:10323000F80CF70B1029E91F2229F809F909F80AF7
:103240000319F90A7808D1000A30D2005208F801AF
:10325000510203182E295108F7003A29F7010830C6
:10326000D300D10DF70D520877020318F700F80DBF
:10327000D30B31297708043C031872298310831279
:10328000AB018B1BAB178B1383164F0883120317ED
:103290009900831603134E088312031798008316B0
:1032A00003134D08831203179700831603134C086A
:1032B0008312031796009D019C0120309B008230F1
:1032C0009A000A128A110313E9210A168A15AB1B08
:1032D0008B177A088316CF007908CE007808CD00C6
:1032E0007708CC00F429831283164C08F7004D08A8
:1032F000803AF8004E08F9004F08FA007A08EB000F
:103300007908EA007808E9007708E8008E30F700CD
:103310006808F7026908F9006A08F800F917F70861
:1033200003199D290310F908031D9929F8080319A9
:103330009D29F90CF80CF70B9229E91FA429F8092B
:10334000F909F80A0319F90A7808D1000A30D200FD
:103350005208F80151020318B0295108F700BC299E
:10336000F7010830D300D10DF70D5208770203188A
:10337000F700F80DD30BB3297708043C0318F429A0
:1033800083148312AB018B1BAB178B1383164F086F
:10339000831203179900831603134E088312031731
:1033A0009800831603134D088312031797008316A2
:1033B00003134C088312031796009D019C012030D3
:1033C0009B0082309A000A128A110313E9210A161F
:1033D0008A15AB1B8B177A088316CF007908CE00AD
:1033E0007808CD007708CC008312AB018B1BAB179C
:1033F0008B1383164F08831203179D008316031344
:103400004E08831203179C00831603134D08831282
:1034100003179B00831603134C08831203179A00AB
:10342000A101A00120309F0082309E000A128A1163
:1034300003131D210A168A15AB1B8B177A088316F6
:10344000CF007908CE007808CD007708CC004C0872
:10345000F7004D08F8004E08F9004F08FA007A0806
:10346000C7007908C6007808C5007708C400470877
:10347000EB004608EA004508E9004408E8008E3001
:10348000F7006808F7026908F9006A08F800F917F8
:10349000F7080319562A0310F908031D522AF808E1
:1034A0000319562AF90CF80CF70B4B2AE91F5D2A71
:1034B000F809F909F80A0319F90A0310780DAE3E64
:1034C00084008313840A0008C90084030008C8002C
:1034D0004908CB004808CA00CC014C080F3C031C2B
:1034E000B02ACB1B772A83120810792A83168312FD
:1034F000081483160810881083128810023083166F
:10350000CD00F930CE000330CE02031C912ACE301C
:103510008400831300080319912A8F2A8F2A800BB5
:103520008E2ACD0B812A88108312881402308316CC
:10353000CD00F930CE000330CE02031CA92ACE30D4
:103540008400831300080319A92AA72AA72A800B3D
:10355000A62ACD0B992A0310CA0DCB0DCC0A6D2AD1
:1035600008118312081502308316CD00F930CE0001
:103570000330CE02031CC62ACE3084008313000819
:103580000319C62AC42AC42A800BC32ACD0BB62A23
:1035900008118312081102308316CD00F930CE00D5
:1035A0000330CE02031CDE2ACE30840083130008D1
:1035B0000319DE2ADC2ADC2A800BDB2ACD0BCE2A7B
:1035C0000130BA000330BB000A128A118312692647
:1035D0000A168A15673003178D0000308F0003101C
:1035E000093083160313AC0083120B088316AD0059
:1035F00083128B13831603178C170C140000000022
:103600000313AD1F062B83128B1783160318432B4E
:10361000831203170C087F3983160313AD0083123E
:1036200003170D0883160313AE00831203170F0848
:1036300083160313AF002D08B9000A128A118312F2
:103640008E260A168A1583162E08831203178D00FC
:10365000831603132F08831203178F0003130B081D
:103660008316B00083128B13831603178C170C1468
:10367000000000000313B01F402B83128B1783162A
:10368000AC0B432B722B831203170C0D0E0D7F39DD
:1036900083160313AD00831203170D08831603135B
:1036A000AE00831203170F0883160313AF002D0813
:1036B000B9000A128A1183128E260A168A158316F9
:1036C0002E08831203178D00831603132F0883120D
:1036D00003178F008D0A03198F0A03108316031333
:1036E000AC0BF42A433084002908AF002808AE0050
:1036F0002708AD002608AC00B0010A128312192475
:083700000A168A150A12232E95
:02400E00723FFF
:00000001FF
;PIC16F877A
;CRC=044F  CREATED="26-Dec-21 17:16"
