:1000000005308A001F2D0000FF00030E8301A100B0
:100010000A08A0008A010408A2007708A300780853
:10002000A4007908A5007A08A600831383120B1E8A
:100030001B288B1830288B1E1F280B1933282208E9
:1000400084002308F7002408F8002508F900260892
:10005000FA0020088A00210E8300FF0E7F0E09009F
:100060008A110A1236288A110A123D28A70A031992
:10007000A80A8B108A110A121F28AB0A0319AC0AAE
:100080002C08033C03185328FF3A031D4B282B0868
:10009000E23C03185328AC01AB012808AA0027084A
:1000A000A900A801A7010B118A110A121F28320802
:1000B000013A03195F28013A031966286C28B11226
:1000C000310883168700831287166C28B112310815
:1000D00083168700831287128A110A122F2D00308F
:1000E000F80006389200FF30831692008312311117
:1000F000310883168700831207110C3097003208ED
:1001000095008A110A12322D580803194929E40072
:100110005C0803194929E402031C93287F30E40793
:100120000318492999288130E402031C492903193D
:1001300049296408F700F801F901FA01E3015908B7
:10014000E200E2175A08E1005B08E0001930E40021
:100150005F08E0020318BC280130E1020318BC2844
:10016000E2020318BC28E3020318BC28E30AE20AEF
:10017000E10A5F08E007EE285E08E1020318D728CD
:100180000130E2020318D728E3020318D728E30A54
:10019000E20A5E08E1075F08E007031CEE28E10AB7
:1001A000031DEE28E20A031DEE28E30AEE285D088F
:1001B0008038E2020318ED280130E3020318ED282D
:1001C000E30A5D088038E2075E08E107031CCB28DC
:1001D000E20A031DCB28E30ACB287A14E40BF128AA
:1001E000FC280310E00DE10DE20DE30D0310FA0D04
:1001F000F90DF80DE50DA828651C04290310F80C6D
:10020000F90CFA0CE50C0729F70303194929E51B3A
:1002100030290310E00DE10DE20DE30D5F08E0026F
:1002200003181C290130E10203181C29E2020318FB
:100230001C29E302031C3F295E08E1020318272959
:100240000130E20203182729E302031C3F295D085D
:100250008038E202031830290130E302031C3F29F1
:10026000FA0A031D3F29F90A031D3F29F80A031D55
:100270003F29F70A03194929F80CF90CFA0C590817
:10028000E4005D08E406E41F4729F8174D29F81338
:100290004D29F701F801F901FA01080080308318AF
:1002A000DD06E201E3015908E1005D08E1065808B6
:1002B00003193E2AE000F7005C080319472AE00210
:1002C0000319E329031CA1295D08E600E6175E086F
:1002D000E5005F08E400E3010310E60CE50CE40C24
:1002E000E30CE00B6B29E11F782962145B2A621092
:1002F000601062165B3084008313702A6212E11B67
:100300008B29601C9629E60CE50CE40CE30CF70A3B
:100310000319562A9629E61B99290310E30DE40DCB
:10032000E50DE60DF7030319562A8B296217032AF8
:1003300062135908E100E11F9F29E6174F2AE613CF
:100340004F2A5C08E000F7005808E0025908E60070
:10035000E6175A08E5005B08E400E3010310E60C29
:10036000E50CE40CE30CE00BAD29E11FBA29E21423
:100370005B2AE2106010E2165F3084008313702A5B
:10038000E212E11BCD29601CD829E60CE50CE40C37
:10039000E30CF70A0319562AD829E61BDB290310B8
:1003A000E30DE40DE50DE60DF7030319562ACD29FB
:1003B000E217032AE2135D08E100E11FE129E617D5
:1003C0004F2AE6134F2A5D08E600E6175E08E500AF
:1003D0005F08E400E11FF029E61362155B2A621151
:1003E000E30160105B3084008313702AE11B192A3B
:1003F0005908E100601C032AE60CE50CE40CE30C50
:10040000F70A0319562AE31F142AE40A031D142AC3
:10041000E50A031D142AE60A031D142AE60CE50C5E
:10042000E40CF70A0319562A621B9829E21BDA2901
:10043000382A8030E606E61F212A5B2A5D08E100A3
:100440002E2A5908E100E608031D2E2AE508031D9F
:100450002E2AE408031D2E2AF7014F2AE61B382A0C
:100460000310E30DE40DE50DE60DF70B2E2A562AD9
:10047000E11F3C2AE6174F2AE6134F2A5C08F700D3
:100480005D08E6005E08E5005F08E4004F2A5808B2
:10049000F7005908E6005A08E5005B08E400660822
:1004A000F8006508F9006408FA008E2AF701F801DF
:1004B000F901FA018E2AE301E409E509E609E309F5
:1004C000E30A031D692AE40A031D692AE50A0319E0
:1004D000E60A62187729E218B9296219EF291E2A5B
:1004E0000008E407031C7A2AE50A031D7A2AE60AB3
:1004F0000319601484030008E507031C822AE60A36
:100500000319601484030008801F803AE60703186B
:100510006014621A7E29E21AC029F62908008E307A
:10052000F7005808F7025908F9005A08F800F917B7
:10053000F7080319A62A0310F908031DA22AF808D0
:100540000319A62AF90CF80CF70B9B2AD91FAD2A20
:10055000F809F909F80A0319F90A08005A08F80114
:1005600059020318B62A5908F700C22AF7010830C1
:10057000DB00D90DF70D5A0877020318F700F80DC4
:10058000DB0BB92A080057080739F700570CF800A9
:10059000F80CF80C1F30F80578085907840083130D
:1005A0005A188317F801F80AF70AD72AF80DF70B3B
:1005B000D62AD8080319DF2A78088004E22AF80925
:1005C0007808800508005508D700D801DA01D9015C
:1005D000C3225508D700D801DA018030D900C322E0
:1005E00008000330D602031CFF2A56308400831310
:1005F00000080319FF2AFD2AFD2A800BFC2A0800A7
:100600005508D7000130D800DA01D901C3225508B6
:10061000D700D801DA018030D900C3220800E030C9
:10062000B6000730B700E030B8000330B900E03062
:10063000BA000130BB00E030BC00BD016030BE003C
:10064000BF012030C000C1013030C200C3013830CA
:10065000C400C5013C30C600C7013E30C800C90116
:100660003F30CA00CB013508DB003408DA0033081C
:10067000D9003208D800DF01DE014830DD008530C6
:10068000DC0084207A08D3007908D2007808D100F1
:100690007708D00083105308DB005208DA005108B5
:1006A000D9005008D800DF01DE012030DD008130A4
:1006B000DC004E217A08D3007908D2007808D100F6
:1006C0007708D0005308D7005208D6005108D5004B
:1006D0005008D4005708DB005608DA005508D90046
:1006E0005408D800DF01DE012030DD008230DC005C
:1006F00058080319E82BE0005C080319E82BE00711
:100700000318892B7F30E002031CE82B0319E82B28
:100710008D2B8130E0070318E82B6008F700F80103
:10072000F901FA015908E400E4175A08E3005B08EC
:10073000E2001830E000E101621CB62B5F08FA0706
:10074000031CA82BF90A031DA82BF80A0319E117AB
:100750005E08F907031CAF2BF80A0319E1175D08BF
:10076000DA00DA175A08F8070318E117E10DF80C58
:10077000F90CFA0CE40CE30CE20C0310E00B9B2BDD
:100780000130F7070318E82BF81BCD2BE40DFA0D09
:10079000F90DF80DF7030319E82BE41FDE2BFA0A15
:1007A000031DDE2BF90A031DDE2BF80A031DDE2BC9
:1007B000F80CF90CFA0CF70A0319E82B5908E100B8
:1007C0005D08E106E11FE62BF817EC2BF813EC2B84
:1007D000F701F801F901FA017A08D7007908D60083
:1007E0007808D5007708D400DB01DA01D901D801F7
:1007F0005708DF005608DE005508DD005408DC000D
:100800005908E0005D08E006E01F0B2C03110310FF
:10081000D91B03143E2C5908E0005C08E10058087D
:10082000E1020319192CE01F3E2C0308013A830052
:100830003E2C5D08E1005908E1020319252CE01F58
:100840003E2C0308013A83003E2C5E08E1005A0862
:10085000E1020319312CE01F3E2C0308013A83000A
:100860003E2C5F08E1005B08E10203193D2CE01F0C
:100870003E2C0308013A83003E2C03100318422C3F
:10088000031D6D2C5708DB005608DA005508D90007
:100890005408D8008F227808D9000A30DA00AE2236
:1008A0007708043C03186C2C83105708DB005608AB
:1008B000DA005508D9005408D800DF01DE012030E5
:1008C000DD008230DC004E217A08D7007908D6009E
:1008D0007808D5007708D4009F2C5408F7005508F5
:1008E000803AF8005608F9005708FA00DB0079084A
:1008F000DA007808D9007708D8008F227808D90064
:100900000A30DA00AE227708043C03189F2C8314C7
:100910005708DB005608DA005508D9005408D800FB
:10092000DF01DE012030DD008230DC004E217A085C
:10093000D7007908D6007808D5007708D400570882
:10094000DB005608DA005508D9005408D800DF014A
:10095000DE012030DD008230DC0084207A08D70000
:100960007908D6007808D5007708D4005408F70035
:100970005508F8005608F9005708FA007A08CF0021
:100980007908CE007808CD007708CC004F08DB004E
:100990004E08DA004D08D9004C08D8008F22031009
:1009A000780D363E84008313840A0008D100840346
:1009B0000008D0005108D3005008D200D4015408D8
:1009C0000F3C031C062DD31BE72C0810E82C081441
:1009D000831608108312D6014130D500E32202307D
:1009E000D500F930D600F122D50BF12CD6014130DB
:1009F000D50000230230D500F930D600F122D50B06
:100A0000FC2C0310D20DD30DD40ADF2CD6014230BA
:100A1000D50000230230D500F930D600F122D50BE5
:100A20000C2DD6014230D500E3220230D500F9303A
:100A3000D600F122D50B172D8A110A123A2D030880
:100A40001F398300FF30B10083161F149F141F1538
:100A50009F1107309C0083138312B2015728FF3087
:100A6000B2006F28B5018030B4004E30B30087303B
:080A7000B2000F2B3A2D6300C8
:02400E00723FFF
:00000001FF
;PIC16F877A
;CRC=C740  CREATED="26-Thg12-21 13:25"
